:04000000D0EF19F034
:080008000000000000000000F0
:100010000000000000000000046ED8CF05F0E0CF23
:1000200006F00001E9CF0CF0EACF07F0E1CF08F0CD
:10003000E2CF09F0D9CF0AF0DACF0BF0F3CF12F00C
:10004000F4CF13F0FACF14F0F5CF15F0F6CF16F089
:10005000F7CF17F000C00EF001C00FF002C010F093
:1000600003C011F0F2AA38EF00F0F2B42EEF02F064
:100070000EC000F00FC001F010C002F011C003F07C
:100080000CC0E9FF07C0EAFF078E08C0E1FF09C006
:10009000E2FF0AC0D9FF0BC0DAFF12C0F3FF13C0A2
:1000A000F4FF14C0FAFF15C0F5FF16C0F6FF17C025
:1000B000F7FF045006C0E0FF05C0D8FF10002D2D4B
:1000C0003E204153495249204953494B3A25750D29
:1000D0000A002D2D3E204E6F726D616C20495349F0
:1000E0004B3A25750D0A0000706F733A256C75093F
:1000F0006B6F6E743A256C640D0A000003011C6B73
:100100001B6B1D6B1D6B1D51070824E31D35006E15
:100110000036FC0E0016C250830B0010C26E6A0E31
:10012000006E002EFED70000C282C2B2FED7C3CF3F
:100130001BF3C4CF1CF3D8901D35036A600FE96E22
:10014000000E0320EA6E1CC3ECFFED521BC3EFFF51
:100150001D2BD9D71A2D20D061C081F060C080F04E
:1001600063C083F062C082F065C085F064C084F033
:1001700067C087F066C086F069C089F068C088F003
:100180006BC08BF06AC08AF06DC08DF06CC08CF0D3
:100190006FC08FF06EC08EF01A5320E161C091F0F5
:1001A00060C090F063C093F062C092F065C095F0BB
:1001B00064C094F067C097F066C096F069C099F08B
:1001C00068C098F06BC09BF06AC09AF06DC09DF05B
:1001D0006CC09CF06FC09FF06EC09EF05F2A000163
:1001E000120003011A6B0201E32BE3510A08D8A0A5
:1001F00026D10001F5A902D0020121D103011A6B19
:100200001A510708D8A01AD1D8901A35036A800F5E
:10021000E96E000E0320EA6EECCF1CF3ED52EFCF37
:100220001BF3D8901A35036A900FE96E000E032075
:10023000EA6EECCF03F0ED52EF501B5D03E103508B
:100240001C5D21E0D8901A35036A800FE96E000E1C
:100250000320EA6EECCF1CF3ED52EFCF1BF3D890E6
:100260001A35036A900FE96E000E0320EA6EECCF98
:1002700003F0ED52EFCF01F01C51035C52E303E1B8
:1002800001501B5D4EE2D8901A35036A700F016E63
:10029000000E032203C01CF3D8901A35036A800FA6
:1002A000E96E000E0320EA6EECCF03F0ED52EFCFC3
:1002B0001DF31CC3EAFF01C0E9FF03C0ECFFED52D0
:1002C0001DC3EFFF0201E451E42B006ED89000360D
:1002D0000050036AFB0F016E000E0322030103C0EE
:1002E0001CF3D8901A35036A800FE96E000E0320C4
:1002F000EA6EECCF03F0ED52EFCF1DF31CC3EAFF23
:1003000001C0E9FF03C0ECFFED521DC3EFFF036A1C
:100310001A51C00FE96E000E0320EA6E410EEF6E17
:1003200083D0D8901A35036A800FE96E000E03203F
:10033000EA6EECCF1CF3ED52EFCF1BF3D8901A35D9
:10034000036A900FE96E000E0320EA6EECCF1EF3F5
:10035000ED52EFCF1DF3320E1D25016E000E1E2152
:10036000036E03501C5D60E303E11B51015C5CE222
:10037000D8901A35036A700F016E000E032203C075
:100380001CF3D8901A35036A800FE96E000E032023
:10039000EA6EECCF1EF3ED52EFCF1DF3D8901A3575
:1003A000036A900FE96E000E0320EA6EECCF03F0B3
:1003B000ED52EF501D5D006E03501E591CC3EAFF45
:1003C00001C0E9FFEC6EED5200C0EFFF0201E45105
:1003D000E42B006ED89000360050036AFB0F016ECC
:1003E000000E0322030103C01CF3D8901A35036AE0
:1003F000700FE96E000E0320EA6EECCF03F0ED52B1
:10040000EFCF1DF31CC3EAFF01C0E9FF03C0ECFFFF
:10041000ED521DC3EFFF036A1A51C00FE96E000EC3
:100420000320EA6E4E0EEF6E0201E4514F0803E224
:10043000030104D0020103011A2BE2D60201E351A9
:10044000090803E3E4514F0806E2E36BE3C2E4F278
:100450000001F589020100014AEF02F0D76A050E9A
:10046000D66EE85302E194968B86E82D04D0030102
:100470001A6B000143DEE851020802E194968B9664
:10048000E851030807E1010E03011A6F000136DE8F
:100490004D8AA7D6E82BE851030801E2E86B010E6C
:1004A0001A26D8B01B2AD8B41C2AD8B41D2AF29414
:1004B000F29438EF00F00201FA51070B006EFA31A6
:1004C000016E013201321F0E01160150FC25E96E4A
:1004D000000EFD21EA6E016A012A002A01D00136D0
:1004E000002EFDD7FB5303E00150EF1203D0011E95
:1004F0000150EF1600011200030EEA6E0A0EE96EBB
:10050000EF500EE0140E016E006A002EFED7012E91
:10051000FBD7BF0E006E002EFED700D0EF2EF2D715
:1005200012000201F96BF96BF651F95D57E2F7C25F
:10053000FAF2010EFB6F0F0EFD6F890EFC6F0001CA
:10054000BADFF7C2FAF20201FB6B0F0EFD6F920EDB
:10055000FC6F0001B0DFD8900201F531FB6FF43180
:10056000FA6FFBC2FCF2FC2BFC07D8B406D00301E7
:100570000A690001C1DF0201F7D7FAC20AF30001DC
:10058000BBDFF7C2FAF20201FB6B0F0EFD6F890EA3
:10059000FC6F000190DFF7C2FAF20201FB6B0F0E55
:1005A000FD6F920EFC6F000186DFD8900201F531DD
:1005B000FB6FF431FA6FFBC2FCF2FC2BFC07D8B4E2
:1005C00006D003010A69000197DF0201F7D7FAC2DA
:1005D0000AF3000191DF0201F92BA6D700011200F6
:1005E000C50ED56ED76A050ED66EF28AC00EF2120F
:1005F000E1EF1AF00201EF5302E1F0530BE0010EBC
:1006000003010A6F000178DF0201EF51D8B4F0074F
:10061000EF07F1D70001E8EF1AF09EA8FED7AD6E04
:100620005DEF03F0050E0201F82503010A6F010ECC
:100630000B6FD8B00B2B010E0A27000E0B23020103
:10064000F95103010A27000E0B230201FA5103019D
:100650000A25016E000E0B21036E0150FF0A010FE7
:10066000056F000E0354066F05C307F306C308F3B6
:100670007E0E0201FB6FFC69060EFD6FF8C2FEF2F2
:10068000010EFF6FF9C200F3FAC201F308C302F3CF
:1006900007C303F3EF0E0301046F096B0951090847
:1006A0000FE3036A0951FB0FE96E020E0320EA6EA5
:1006B000EFCF0AF30A510001B0D70301092BEED79F
:1006C0001E0E0A6F000118DF1200060E0201F86FFD
:1006D000F96BF3C2FAF20001A5DF1200016603D044
:1006E000026602D007D0022A00C0EEFF012EFCD71E
:1006F000022EFAD712000201F56BF76BF66B030EB0
:10070000F96FF8690001F5A981D0F5990201F56B3F
:10071000F5514F0854E3036AF5C202F0D89002364F
:1007200003360250F325E96EF4510320EA6EECCF54
:10073000FBF2ED52EFCFFAF2F751FB5D15E303E167
:10074000FA51F65D11E2036AF5C202F0D890023662
:1007500003360250F325E96EF4510320EA6EECCF24
:10076000F7F2ED52EFCFF6F2036AF5C202F0D8903D
:10077000023603360250F325E96EF4510320EA6E87
:10078000ECCFFBF2ED52EFCFFAF2FB51F95D15E33E
:1007900003E1F851FA5D11E2036AF5C202F0D89064
:1007A000023603360250F325E96EF4510320EA6E57
:1007B000ECCFF9F2ED52EFCFF8F2F52BA9D7F851C3
:1007C000F625FA6FF951F721FB6FD890FB31E26FF4
:1007D000FA31E16FE25307E1E151630804E3010EEE
:1007E000E26F900EE16FF56BF55107080FE3D890BB
:1007F000F535036AB00FE96E000E0320EA6EE2C21F
:10080000ECFFED52E1C2EFFFF52BEED7000127EF31
:1008100004F00201F26BF16BF06BEF6BF56B320ED3
:10082000F46F020EF66F7C0EF86F100EF76F00017A
:1008300078DE1DC0F2F21CC0F1F21BC0F0F21AC04B
:10084000EFF20201F46BFB0EF36F000154D70201CB
:10085000EF511A5CF36FF0511B58F46FF1511C58B3
:10086000F56FF2511D58F66FF6530AE1F55308E1A2
:10087000F451120806E2FF0A03E1F351880801E28D
:1008800001D0E0D7F56B0A0EF46F140EF66F7C0EF4
:10089000F86F100EF76F000144DE1200F2C223F071
:1008A000F1C222F0F0C221F0EFC220F07BEF1BF08A
:1008B0000201F56B939A8A9AF56BF451F55D1FE28C
:1008C000010EF45DD880F555F66FF3C203F0F2C265
:1008D00002F0F651006E05E0D89003320232002E8D
:1008E000FBD7025002A003D093928A8202D0939247
:1008F0008A9293988A9893988A88F52BDED7939A50
:100900008A8A00011200160E0201F86FF96BFA6B69
:10091000000188DE1200F5C2F6F2F4C2F7F2120E00
:100920000201F86FF5C2F9F2F4C2FAF200017ADEC0
:1009300012000201F36BF36BF35108080FE3036A33
:10094000F351260FE96E000E0320EA6EEF50255C8E
:1009500003E1000E016E04D0F32BEED7010E016E01
:10096000000166EF05F00201FB6BFC6B010EFD6FF1
:10097000DA6AD96A020E0301006FF30E0201FF6FFB
:10098000020EEA6EF70EE96E00C3E2FFFFC2E1FF5E
:10099000FDC2FEF2D890E550EE02F350FB23F45076
:1009A000FC23FE2FF7D7FBC2DEFFFCC2FBF2FC6B81
:1009B000D8B0FC2BFF2BD8A403D00301002B0201DD
:1009C000FD2BFD510508DCE100011DEF05F0016A7A
:1009D000026A006A036A0201F95102E1F85118E063
:1009E000100EFA6FD890F637F73700360336F95104
:1009F000035C02E1F851005C07E3F851005ED8A007
:100A00000306F951035ED88001360236FA2FEAD781
:100A10000001120023C0F6F222C0F5F221C0F4F268
:100A200020C0F3F2410E0201FA6FC60EF96F4E0EAE
:100A3000F86F6D0EF76F000196D7390E0201002492
:100A4000206E300E0120216E000E0220226E000E5C
:100A50000320236E22C000F023C001F0026A036A63
:100A600023C0F5F222C0F4F223C0F7F222C0F6F25E
:100A7000F96B090EF86F0001AADF00C001F003C096
:100A800002F069EF05F00201F26BF16BF06BEF6BB6
:100A9000000139DF640E03010A6F00012DDD010E34
:100AA0000201F36F000111DE640E03010A6F000101
:100AB00023DD2F50080809E22F6AEA6A260EE96E44
:100AC000006A026A090E016E09DE33D7015213E192
:100AD000A1D702C0F4F201C0F3F202C0F7F201C0E4
:100AE000F6F20201F96B090EF86F000170DF005099
:100AF0001E0F256EEAD7036A2F50260FE96E000EEF
:100B00000320EA6E25C0EFFF2F2A2550270802E2B6
:100B10001E0E256E25501D0802E3220E256E24C0F0
:100B2000F3F2D3DD640E03010A6F0001E5DC02017C
:100B3000F56B25C0F4F20001EEDE640E03010A6FCE
:100B40000001DADC1DC0F2F21CC0F1F21BC0F0F2B1
:100B50001AC0EFF2948A82AA33D0D5DE640E030164
:100B60000A6F0001C9DC0201F56B25C0F4F2000137
:100B7000D2DE020E0201F36FC80E03010A6F0001FC
:100B8000BBDC0201F32FF8D7EF511A5CF36FF05181
:100B90001B58F46FF1511C58F56FF2511D58F66F48
:100BA000F6530AE1F55308E1F451060807E2FF0A9B
:100BB00003E1F351D00802E2000102D00001CAD7DC
:100BC0001200030108510A19800B0C6F08AF05D001
:100BD000071F081F072BD8B4082B0AAF05D0091F21
:100BE0000A1F092BD8B40A2B016A026A006A036A39
:100BF0000A5102E1095118E0100E0B6FD890073727
:100C00000837003603360A51035C02E10951005CE3
:100C100007E30951005ED8A003060A51035ED8809D
:100C2000013602360B2FEAD70CAF05D0011E021E8B
:100C3000012AD8B4022A0001120065DE640E030105
:100C40000A6F000159DC0201F56BEFC2F4F20001FA
:100C500062DE040E0201F06FFA0E03010A6F00015A
:100C60004BDC0201F02FF8D70001120083A00CD159
:100C70001DC041F01CC040F01BC03FF01AC03EF048
:100C8000929C897C0201F56B320EF46F020EF66FB6
:100C90007C0EF86F100EF76F000143DC0201E56B6C
:100CA000E96B000130DE640E03010A6F000124DCF1
:100CB000F5A191D094988B88320E4526000E4622DD
:100CC000320E4726000E482246BE0CD04650010880
:100CD00009E2FF0A03E14550BB0804E2020E466E3A
:100CE000BC0E456E48BE0CD04850010809E2FF0A10
:100CF00003E14750BB0804E2020E486EBC0E476E8B
:100D000046C002F045C001F0023201320232013227
:100D1000023201C067FF02320230300B006E6650B3
:100D2000CF0B0010666E48C002F047C001F00232DF
:100D3000013202320132023201C0BEFF0232023001
:100D4000300B006EBD50CF0B0010BD6E46BE07D0FD
:100D50004650020811E303E14550BB080DE30201D0
:100D6000F56B320EF46F020EF66F7C0EF86F100EFC
:100D7000F76F000191EC02F0FA0E03010A6F000117
:100D80007CEC02F083B098D746C002F045C001F079
:100D90000232013202320132023201C067FF0232F6
:100DA0000230300B006E6650CF0B0010666E48C0EC
:100DB00002F047C001F00232013202320132023247
:100DC00001C0BEFF02320230300B006EBD50CF0BAF
:100DD0000010BD6E59D0F5A357D095DD640E030108
:100DE0000A6F00017CEC02F014DD24C0F3F26DDC2C
:100DF000020E0201EF6FFA0E03010A6F00017CEC94
:100E000002F00201EF2FF7D7F56B030EF46F00012C
:100E100082DD0C0E0201EF6FFA0E03010A6F000172
:100E20007CEC02F00201EF2FF7D700016CDD640EBD
:100E300003010A6F00017CEC02F00201F56B010E68
:100E4000F46F000168DD040E0201EF6FFA0E03017A
:100E50000A6F00017CEC02F00201EF2FF7D74A6A1B
:100E6000640E496E4D901D6A1C6A1B6A1A6A94983A
:100E70008B880001F597F5851DC058F01CC057F010
:100E80001BC056F01AC055F083A2C7D01DC041F058
:100E90001CC040F01BC03FF01AC03EF00201F56BD1
:100EA000320EF46F020EF66F7C0EF86F100EF76FB5
:100EB000000191EC02F027DD640E03010A6F0001CE
:100EC0007CEC02F00201E62BE651050856E2000137
:100ED000F5B102D0020151D00201E66B0001D3DD71
:100EE00083A224D0FA0E03010A6F00017CEC02F009
:100EF000030E242624501B0802E2030E246E24C095
:100F0000F3F265EC03F00201F56B320EF46F020EA2
:100F1000F66F7C0EF86F100EF76F000191EC02F087
:100F2000640E03010A6F00017CEC02F083AA23D057
:100F3000F250006EF29E020EA96E24C0A8FFA69C7D
:100F4000A69EA6840F01550EA76EAA0EA76EA682B6
:100F5000A6B2FED7A6940050F2120201F56B0A0E5B
:100F6000F46F140EF66F7C0EF86F100EF76F000121
:100F700091EC02F001D0B4D702010001F5A14DD0EF
:100F8000320E455E000E465A320E475E000E485A3B
:100F900046BE05D0465205E14550310802E3466A97
:100FA000456A48BE05D0485205E14750310802E382
:100FB000486A476A46C002F045C001F00232013279
:100FC00002320132023201C067FF02320230300BBE
:100FD000006E6650CF0B0010666E48C002F047C02E
:100FE00001F00232013202320132023201C0BEFF90
:100FF00002320230300B006EBD50CF0B0010BD6EC0
:101000000201F56B320EF46F020EF66F7C0EF86F74
:10101000100EF76F000191EC02F083A4BBD01DC04D
:1010200041F01CC040F01BC03FF01AC03EF002016E
:10103000E56B000168DC640E03010A6F00017CECC3
:1010400002F0F5A56CD0466A456A486A476A4A6A62
:10105000496A676ABE6A83A424D0FA0E03010A6F44
:1010600000017CEC02F0190E4B26000E4C224C5075
:1010700001080AE2FF0A03E14B50BB0805E2020E39
:101080004C6EBC0E4B6E0DD00201F56B320EF46F40
:10109000020EF66F7C0EF86F100EF76F000191ECE8
:1010A00002F083AA3BD04CC0EFF2F250006EF29EE9
:1010B000A96AEFC2A8FFA69CA69EA6840F01550EA2
:1010C000A76EAA0EA76EA682A6B2FED7A69400505F
:1010D000F2124BC0EFF2F2CF00F0F29E010EA96EB9
:1010E0004BC0A8FFA69CA69EA684550EA76EAA0E6E
:1010F000A76EA682A6B2FED7A6940050F2120201F5
:10110000F56B0A0EF46F140EF66F7C0EF86F100E6E
:10111000F76F000191EC02F0F59501D094D7F5A19D
:1011200039D046C008F345C007F303010A6B0A0E25
:10113000096F000146DD02C0F0F2020101C0EFF2CA
:10114000F033EF33F033EF33F033EFC267FFF033B8
:10115000F031300B006E6650CF0B0010666E46C04B
:1011600002F045C001F00232013202320132023295
:1011700001C0BEFF02320230300B006EBD50CF0BFB
:101180000010BD6E640E03010A6F00017CEC02F0DA
:1011900083B4C7D783A6B8D01DC041F01CC040F0AF
:1011A0001BC03FF01AC03EF00201E56B000183EC6A
:1011B00004F0640E03010A6F00017CEC02F0F5A557
:1011C00068D0466A456A486A476A4A6A496A676AED
:1011D000BE6A83A620D0FA0E03010A6F00017CECE0
:1011E00002F0190E4B5E000E4C5A4C5207E14B5068
:1011F000C80804E34C6AC80E4B6E0DD00201F56BB3
:10120000320EF46F020EF66F7C0EF86F100EF76F51
:10121000000191EC02F083AA3BD04CC0EFF2F250F7
:10122000006EF29EA96AEFC2A8FFA69CA69EA684A5
:101230000F01550EA76EAA0EA76EA682A6B2FED704
:10124000A6940050F2124BC0EFF2F2CF00F0F29EE3
:10125000010EA96E4BC0A8FFA69CA69EA684550EA3
:10126000A76EAA0EA76EA682A6B2FED7A6940050BD
:10127000F2120201F56B0A0EF46F140EF66F7C0E7B
:10128000F86F100EF76F000191EC02F0F59501D0A8
:1012900098D7F5A139D048C002F047C001F002321A
:1012A000013202320132023201C067FF02320230E3
:1012B000300B006E6650CF0B0010666E48C008F30E
:1012C00047C007F303010A6B0A0E096F000179DCBE
:1012D00002C0F0F2020101C0EFF2F033EF33F0335D
:1012E000EF33F033EFC2BEFFF033F031300B006E5E
:1012F000BD50CF0B0010BD6E640E03010A6F0001DC
:101300007CEC02F083B6C7D783A8B3D01DC041F0F0
:101310001CC040F01BC03FF01AC03EF00201F56B4C
:10132000320EF46F020EF66F7C0EF86F100EF76F30
:10133000000191EC02F0F5A517D046AE03D048AEFF
:101340000AD002D048BE0CD04650485C09E303E105
:101350004750455C05E246C048F045C047F004D020
:1013600048C046F047C045F0466A456A486A476A41
:10137000676ABE6A0201E52B0001F59583EC04F073
:10138000640E03010A6F00017CEC02F094988B98C4
:101390000201E5510A086CE20001F5A105D0F5B3A0
:1013A00003D0F591F58306D0F5B104D0F5A302D0B2
:1013B000F581F593F5A328D083EC04F0640E0301C6
:1013C0000A6F00017CEC02F0140E0201F36F0001C1
:1013D00065EC03F01E0E03010A6F00017CEC02F0C5
:1013E0000201F56B080EF46F00018BEC04F0040EA3
:1013F0000201EF6FFA0E03010A6F00017CEC02F0AC
:101400000201EF2FF7D70001F5A130D083EC04F0F3
:10141000640E03010A6F00017CEC02F0140E02015D
:10142000F36F000165EC03F01E0E03010A6F00016B
:101430007CEC02F00201F56B070EF46F00018BECFF
:1014400004F00C0E0201EF6FFA0E03010A6F0001A7
:101450007CEC02F00201EF2FF7D7000183EC04F0DF
:10146000640E03010A6F00017CEC02F00201E56BDF
:10147000000183AAF7D01DC041F01CC040F01BC082
:101480003FF01AC03EF00201F56B320EF46F020E0F
:10149000F66F7C0EF86F100EF76F000191EC02F002
:1014A0000201E62B000183EC04F0640E03010A6FD5
:1014B00000017CEC02F00201E6510508D8B0D2D060
:1014C0000001F5B102D00201CDD00201E66B140E8D
:1014D000F36F000165EC03F083EC04F0640E03018C
:1014E0000A6F00017CEC02F00201F56B060EF46F4E
:1014F00000018BEC04F00C0E0201EF6FFA0E0301F9
:101500000A6F00017CEC02F00201EF2FF7D783A2F3
:1015100027D0640E03010A6F00017CEC02F0020187
:10152000F56B320EF46F020EF66F7C0EF86F100E34
:10153000F76F000191EC02F00201E72B050EE8279E
:10154000E851640802E2640EE86FE751190802E20C
:10155000190EE76FE7C2EFF200011DEC06F0020181
:1015600083A627D0640E03010A6F00017CEC02F011
:101570000201F56B320EF46F020EF66F7C0EF86FFF
:10158000100EF76F000191EC02F00201E707050E63
:10159000E85FE851130802E3140EE86FE75108080A
:1015A00002E3090EE76FE7C2EFF200011DEC06F05F
:1015B000020183AA56D0640E03010A6F00017CEC7D
:1015C00002F00201F56B320EF46F020EF66F7C0E24
:1015D000F86F100EF76F000191EC02F083EC04F04D
:1015E000640E03010A6F00017CEC02F0F250006E01
:1015F000F29E100EA96EE8C2A8FFA69CA69EA68425
:101600000F01550EA76EAA0EA76EA682A6B2FED730
:10161000A6940050F212640E03010A6F00017CECE4
:1016200002F0E8C254F083EC04F0640E03010A6F88
:1016300000017CEC02F00201F56B030EF46F000177
:101640008BEC04F00201F56B0A0EF46F140EF66FCA
:101650007C0EF86F100EF76F000191EC02F002D0D3
:10166000020155D70001C4EF1BF0D8B204D0030E1D
:10167000EA6E050EE96E006A016A026A036A0301F6
:10168000056B066B076B086B045103110211011106
:101690002EE0200E096FD8900201FD37FE37FF378C
:1016A0000301003705370637073708370451085D4F
:1016B00008E10351075D05E10251065D02E10151B8
:1016C000055D0FE30151055F0251D8A0023D065FA1
:1016D0000351D8A0033D075F0451D8A0043D085F23
:1016E000D8800036013602360336092FD4D705C319
:1016F000EFFF06C3ECFF07C3ECFF08C3ECFF0001DC
:1017000012000201EF6BF06BF16BF26BF66BF56B95
:10171000F46BF36BFA6BF96BF86BF76BFC6BFB6BB1
:10172000DC6BDB6B030EDE6FDD69010EEA6E9B0E78
:10173000E96E006A026A500E016E00016EEC03F061
:10174000020EEA6E3B0EE96E006A026A500E016EEE
:101750006EEC03F00201DC6BDB6B030EDE6FDD6908
:10176000EF6BEF514F08D8A0F0D00001F5BB39D096
:10177000D8900201EF35036AFB0FE96E000E0320DB
:10178000EA6EECCFFEF2ED52EFCFFDF2E251FE5DDC
:1017900027E303E1FD51E15D23E2F051F02B006E00
:1017A000D89000360050036A9B0F016E010E032291
:1017B00003C0FEF2D890EF35036AFB0FE96E000E0E
:1017C0000320EA6EECCF03F0ED52EFCFFFF2FEC242
:1017D000EAFF01C0E9FF03C0ECFFED52FFC2EFFFDB
:1017E0000001F5AB39D0D8900201EF35036AFB0F49
:1017F000E96E000E0320EA6EECCFFEF2ED52EFCF61
:10180000FDF2E051FE5D27E303E1FD51DF5D23E2E0
:10181000F051F02B006ED89000360050036A9B0FF9
:10182000016E010E032203C0FEF2D890EF35036A69
:10183000FB0FE96E000E0320EA6EECCF03F0ED52D1
:10184000EFCFFFF2FEC2EAFF01C0E9FF03C0ECFFE9
:10185000ED52FFC2EFFF0001F5BB39D0D890020175
:10186000EF35036AFB0FE96E000E0320EA6EECCF42
:10187000FEF2ED52EFCFFDF2FE51E25D27E303E110
:10188000E151FD5D23E2F151F12B006ED89000365D
:101890000050036A3B0F016E020E032203C0FEF2EA
:1018A000D890EF35036AFB0FE96E000E0320EA6E55
:1018B000ECCF03F0ED52EFCFFFF2FEC2EAFF01C022
:1018C000E9FF03C0ECFFED52FFC2EFFF0001F5ABF3
:1018D00039D0D8900201EF35036AFB0FE96E000E94
:1018E0000320EA6EECCFFEF2ED52EFCFFDF2FE5197
:1018F000E05D27E303E1DF51FD5D23E2F151F12BD0
:10190000006ED89000360050036A3B0F016E020E45
:10191000032203C0FEF2D890EF35036AFB0FE96E95
:10192000000E0320EA6EECCF03F0ED52EFCFFFF292
:10193000FEC2EAFF01C0E9FF03C0ECFFED52FFC2A7
:10194000EFFF00010201EF2B0CD70001F58B020124
:10195000EF6BF051EF5D14E2D890EF35036A9B0F07
:10196000E96E010E0320EA6EECCF03F0ED52EF506A
:10197000F3270350F423000EF523F623EF2BE9D7CA
:10198000EF6BF151EF5D14E2D890EF35036A3B0F36
:10199000E96E020E0320EA6EECCF03F0ED52EF5039
:1019A000F7270350F823000EF923FA23EF2BE9D78A
:1019B000D892F6C200F3F5C2FFF2F4C2FEF2F3C20F
:1019C000FDF20301046B036B026BF0C201F3000133
:1019D0004CDE01C0DCF200C0DBF2D892FAC200F3A8
:1019E000F9C2FFF2F8C2FEF2F7C2FDF20301046B86
:1019F000036B026BF1C201F3000137DE01C0DEF2BE
:101A000000C0DDF20201DD51DB25FD6FDE51DC217E
:101A1000FE6FD890FE31E06FFD31DF6FF16BF1C2E8
:101A2000F0F2FA6BF96BF86BF76BFAC2F6F2F9C2E7
:101A3000F5F2F8C2F4F2F7C2F3F2F22BFB51DF5DDC
:101A400003E1FC51E05D03E0F2510A0804E2000109
:101A5000F58908D00201E0C2FCF2DFC2FBF200010E
:101A6000F5A978D60201F2C201F0000112000900C6
:101A7000F6CFF1F2F7CFF2F2F550A4A8FED7736ECD
:101A8000F1C2F6FFF2C2F7FF0201F02F01D002D03F
:101A90000001EDD7000112000201F351016AF25D6D
:101AA00003E2F2C200F00CD0006A080EF46FF237C5
:101AB0000036F351005CD8B0006E0136F42FF7D732
:101AC000000112000150F0C2F2F2640E0201F36F45
:101AD0000001E2DF00C0F0F20150300E08E1020127
:101AE000F1A30ED0F1B70CD0F1B9200E04D0020151
:101AF000F197F199F18101260150A4A8FED7736EE8
:101B0000F0C2F2F20A0EF36F0001C6DF00C0F0F27D
:101B10000150300E08E10201F1B70BD0F1A109D05C
:101B2000F1B9200E000101260150A4A8FED7736E62
:101B30000201300EF027F051A4A8FED7736E000109
:101B400012000201EF6BEF6BEF510708D8A02FD204
:101B5000D890EF35036A800FE96E000E0320EA6E1D
:101B6000ECCFF1F2ED52EFCFF0F2D890EF35036AFF
:101B7000900FE96E000E0320EA6EECCF03F0ED52F9
:101B8000EF50F05D03E10350F15D21E0D890EF35B7
:101B9000036A800FE96E000E0320EA6EECCFF1F2CB
:101BA000ED52EFCFF0F2D890EF35036A900FE96E67
:101BB000000E0320EA6EECCF03F0ED52EFCF01F000
:101BC000F151035C45E303E10150F05D41E2036A3A
:101BD000EF51C00FE96E000E0320EA6E410EEF6E6A
:101BE000D890EF35036AC80F016E000E032203C0C0
:101BF000F1F2D890EF35036A800FE96E000E0320F2
:101C0000EA6EECCF03F0ED52EFCFF2F2F1C2EAFF51
:101C100001C0E9FF03C0ECFFED52F2C2EFFFBE0EC0
:101C2000F66E000EF76E0F0EF06F000120DFEFC2B0
:101C3000F0F21B0E0201F16F000144DF0D0EA4A8AB
:101C4000FED7736E0A0EA4A8FED7736EB9D0020138
:101C5000036AEF51D80FE96E000E0320EA6EEF50D1
:101C6000410825E1D890EF35036AA00FE96E000E18
:101C70000320EA6EE0C2ECFFED52DFC2EFFFD20EAE
:101C8000F66E000EF76E100EF06F0001F0DEEFC280
:101C9000F0F21B0E0201F16F000114DF0D0EA4A87B
:101CA000FED7736E0A0EA4A8FED7736E0201036AF4
:101CB000EF51D80FE96E000E0320EA6EEF504E0888
:101CC000D8A47DD0D890EF35036A800FE96E000E5E
:101CD0000320EA6EECCFF1F2ED52EFCFF0F2D890A4
:101CE000EF35036A900FE96E000E0320EA6EECCF29
:101CF000F3F2ED52EFCFF2F2640EF225016E000E18
:101D0000F321036E0350F15D5AE303E1F051015CEE
:101D100056E2D890EF35036A700F016E000E032271
:101D200003C0F1F2D890EF35036A800FE96E000E20
:101D30000320EA6EECCFF3F2ED52EFCFF2F2D8903F
:101D4000EF35036A900FE96E000E0320EA6EECCFC8
:101D500003F0ED52EF50F25D006E0350F359F1C203
:101D6000EAFF01C0E9FFEC6EED5200C0EFFF036A2D
:101D7000EF51C00FE96E000E0320EA6E4E0EEF6EBB
:101D8000D890EF35036AA00F016E000E032203C046
:101D9000F1F2D890EF35036AB00FE96E000E032020
:101DA000EA6EECCF03F0ED52EFCFF2F2F1C2EAFFB0
:101DB00001C0E9FF03C0ECFFED52F2C2EFFF0001EA
:101DC000036A0201EF51C00FE96E000E0320EA6EB4
:101DD000EF50410808E1036AEF51E00FE96E000E91
:101DE0000320EA6EEF6A036AEF51C00FE96E000E3E
:101DF0000320EA6EEF504E0853E1D890EF35036AA6
:101E0000700FE96E000E0320EA6EECCFF1F2ED5296
:101E1000EFCFF0F2D890EF35036AA00FE96E000E15
:101E20000320EA6EECCF03F0ED52EFCF01F0035048
:101E3000F15D0CE303E1F051015C08E2036AEF514C
:101E4000E00FE96E000E0320EA6EEF6AD890EF35DE
:101E5000036A700FE96E000E0320EA6EECCFF1F218
:101E6000ED52EFCFF0F2D890EF35036AA00FE96E94
:101E7000000E0320EA6EECCF03F0ED52EFCF01F03D
:101E8000F151035C0DE303E10150F05D09E2036AE7
:101E9000EF51E00FE96E000E0320EA6E010EEF6EC7
:101EA000D890EF35036A800FE96E000E0320EA6ECA
:101EB000ECCFF1F2ED52EFCFF0F2D890EF35036AAC
:101EC000900FE96E000E0320EA6EECCF03F0ED52A6
:101ED000EFCF01F00350F15D51E303E1F051015CFC
:101EE0004DE2036AEF51D80FE96E000E0320EA6E4F
:101EF000EF50410843E1D890EF35036A800FE96E57
:101F0000000E0320EA6EECCFF1F2ED52EFCFF0F2CB
:101F1000D890EF35036AC80FE96E000E0320EA6E11
:101F2000ECCFF3F2ED52EFCFF2F2640EF25D006E01
:101F3000000EF359036E00C001F0F151035C1EE383
:101F400003E10150F05D1AE2D890EF35036A700F9B
:101F5000E96E000E0320EA6EECCFF1F2ED52EFCF06
:101F6000F0F2F05302E1F15309E0036AEF51E00FA0
:101F7000E96E000E0320EA6E010EEF6E036AEF5168
:101F8000D80F016E000E032203C0F1F2036AEF5175
:101F9000C00FE96E000E0320EA6EEFCFF2F2F1C23D
:101FA000EAFF01C0E9FFF2C2EFFFEF2BCDD5000140
:101FB00012000201F06BF16BEF6BEF51070855E374
:101FC000D890EF35036A700FE96E000E0320EA6EB9
:101FD000ECCFF3F2ED52EFCFF2F2F351E25D05E315
:101FE00003E1E151F25D01E2F02BD890EF35036A95
:101FF000700FE96E000E0320EA6EECCFF3F2ED52A3
:10200000EFCFF2F2E251F35D05E303E1F251E15D5E
:1020100001E2F12B036AEF51E00FE96E000E03209D
:10202000EA6EEF2C0BD0010E006EEF51016E04E052
:10203000D8900036012EFCD700504212036AEF51AF
:10204000E00FE96E000E0320EA6EEF520CE1010E84
:10205000006EEF51016E04E0D8900036012EFCD7DF
:102060000050FF0A4216EF2BA8D7F051070802E2F2
:102070004D8E01D04D9EF151070802E24D8C01D0EA
:102080004D9C4DAE01D042684DAC01D0426AF36B1D
:1020900042C0F2F2080EF46F000158EC04F0120096
:1020A0000201FB51FD03F3CF00F0F4CF01F0026A0F
:1020B000036AFE03F3500126F4500222000E0322AD
:1020C000FC51FD03F3500126F4500222000E0322BE
:1020D000FC51FE03F3500226F450032200011200CB
:1020E0000201F751F903F3CF01F0F4CF00F0FA0346
:1020F000F3500026F851F903F3500020026E00015E
:10210000E5EF10F00201F46BF36BF26BF16BF66B21
:10211000F56BF06BF051070865E3EF514F083EE1B6
:10212000D890F035036A700FE96E000E0320EA6E56
:10213000ECCFFCF2ED52EFCFFBF2FE6BF0C2FDF202
:102140000001AEDF015003C0FAF202C0F9F201C093
:10215000F8F200C0F7F201C0FCF200C0FBF2010E81
:102160000201FE6FF40EFD6F00019ADF00500201C4
:10217000F1270150F2230250F3230350F423D890A7
:10218000F035036A700FE96E000E0320EA6EECCFA3
:1021900003F0ED52EF50F5270350F623EF514208BC
:1021A0001FE142C000F0F051016E04E0D89000320F
:1021B000012EFCD700A014D0F86BF0C2F7F2010E8C
:1021C000FA6FF40EF96F00018BD701500201F1276D
:1021D0000250F223000EF323F423F52BD8B4F62B90
:1021E000F02B98D7D892F4C200F3F3C2FFF2F2C2F8
:1021F000FEF2F1C2FDF20301046B036BF6C202F3BF
:10220000F5C201F3000135EC0BF001C002F000C093
:1022100001F0FCEF1BF08E0E006E0AC301F009C343
:1022200002F0036A015209E102C001F0026A080EDD
:10223000005E015202E1006A08D0D89001BE04D0CD
:10224000023601360006F9D7019E1200030109513A
:10225000D8B4A5D0156F0D51D8B4A1D0155F05E342
:102260007F0E1527D8B09BD006D0810E155FD8A061
:1022700096D0D8B494D015C300F0016A026A036AFC
:10228000146B0AC313F3138F0BC312F30CC311F3B4
:10229000190E156F1051115F0DE2010E125F0AE267
:1022A000135F08E2145F06E2142B132B122B10515C
:1022B000112728D00F51125F12E2010E135F0FE2B7
:1022C000145F0DE2142B132B0F51122710511127FD
:1022D00019E3122B17E1132B15E1142B13D00E5118
:1022E0008009135F0EE2010E145F0BE2142B0E51F6
:1022F000800913270F511227E9E3132BE7E1142B71
:10230000E5D70380152F01D00BD0D89011371237A5
:1023100013371437D8900336023601361637BAD73A
:1023200016A106D0D890013202320332163302D001
:10233000000635E016BF1ED0D8901137123713377C
:1023400014371051115F07E2010E125F04E2135FB0
:1023500002E2145F1AE30F51125F05E2010E135FF0
:1023600002E2145F12E30E518009135F03E2010ED3
:10237000145F0BE3032A09E1022A07E1012A05E1C0
:10238000002A0DE00132023203320AC315F30E5166
:10239000151B15AF02D0018E06D0019E04D0006A35
:1023A000016A026A036A000112008E0E006E06C303
:1023B00001F005C302F0036A01AE05D0011E021E42
:1023C000022A01E1012A015209E102C001F0026A78
:1023D000080E005E015202E1006A0ED0D89001BEE4
:1023E00004D0023601360006F9D7030106AF02D049
:1023F000000102D0019E0001120003010951D8B46E
:1024000071D0006E0D51D8B46DD0002604E3810E5A
:10241000002668E204D07F0E005E64E363E00AC336
:1024200011F30E51111B0A8F0E8F0C511003F4CFB4
:1024300013F30B510F03F4CF03F0F3CF12F3100398
:10244000F3501327F4501223000E03220C510F03F4
:10245000F3501327F4501223000E026A03220222C3
:102460000A511003F3501227F4500322000E0222E7
:102470000A510F03F3500326F4500222000E016AA2
:1024800001220C510E03F3501227F4500322000EC8
:10249000022201220B510E03F3500326F4500222B4
:1024A000000E01220A510E03F3500226F4500122BD
:1024B000002A01BE05D01237033602360136000667
:1024C000000E12AF0AD0032A02220122015005E1B8
:1024D000025003E1035001E1002A11BF018E11AF48
:1024E000019E04D0006A016A026A036A00011200B8
:1024F0008E0E006E03010551005E06C302F007C395
:1025000001F0028E005209E0D890025202E101521D
:1025100004E002320132002EF7D706AF05D0011ECB
:10252000021E012AD8B4022A00011200030106513A
:102530000819800B0A6F06AF05D0051F061F052B73
:10254000D8B4062B08AF05D0071F081F072BD8B437
:10255000082B05510703F3CF01F0F4CF00F0080377
:10256000F350002606510703F3500020026E0AAF15
:1025700005D0011E021E012AD8B4022A00010FEF65
:1025800013F0F4C206F3F3C205F30FDFFCC20CF341
:10259000FBC20BF3FAC20AF3F9C209F303C010F34A
:1025A00002C00FF301C00EF300C00DF326DF03C01D
:1025B00008F302C007F301C006F300C005F398DF7B
:1025C00002C002F301C001F30301046B036B0201BB
:1025D000F751F35D38E1F851F45D35E1010E302635
:1025E000000E31223150E90809E2FF0A03E13050C0
:1025F000600804E2EA0E316E600E306E3350315CDA
:1026000021E303E13050325C1DE235C006F334C0F3
:1026100005F30301086B190E076F000187D702C08D
:1026200006F301C005F302C008F301C007F331C08F
:102630000AF330C009F3E1EC05F002C004F301C075
:1026400003F3020169D0302AD8B4312AF6C206F366
:10265000F5C205F30001A9DE00C30CF3FFC20BF3C2
:10266000FEC20AF3FDC209F303C010F302C00FF368
:1026700001C00EF300C00DF3C0DE03C008F302C0BA
:1026800007F301C006F300C005F303C00CF302C05A
:102690000BF301C00AF300C009F30301106B0F6BC9
:1026A000480E0E6F830E0D6F0001A7DE03C008F306
:1026B00002C007F301C006F300C005F331C00AF3FE
:1026C00030C009F3A8DD08C30CF307C30BF306C33E
:1026D0000AF305C309F303C010F302C00FF301C0EE
:1026E0000EF300C00DF3B2DD03C008F302C007F320
:1026F00001C006F300C005F3FBDE02C004F301C015
:1027000003F304C335F003C334F031C033F030C0F9
:1027100032F0316A306A0201030103510125016E72
:1027200004510221036E026E00016FEF1CF0EACF2C
:10273000F7F2E9CFF6F20201F039F009F26FF22771
:10274000E20FF36F320FF56FF0510F0BF327F32702
:10275000F527E90FF46FF427F427EF390F0BF4276F
:10276000F527F437F537F51FF537EF510F0BF52740
:10277000F237070EF16F0A0EF407F527FDE3F307B2
:10278000F427FDE3F207F327FDE3F107F227FDE36A
:10279000020EEA6EF10EE96E070EF615F69DE926B9
:1027A000000EEA22E950F50804E1EA50020801E1CE
:1027B000F68DEF50006E08E1F6BD06D0F6B90CD0EC
:1027C000F6B702D0200E03D0F687F699300E002619
:1027D0000050A4A8FED7736EEE50F6ADE3D700010B
:1027E00085EF1CF0EACFF7F2E9CFF6F20201F0AF85
:1027F00008D0F68FF6A9F62BEF1FF01FEF2BD8B4F9
:10280000F02BF039F009F26FF227E20FF36F320F7D
:10281000F56FF0510F0BF327F327F527E90FF46F4E
:10282000F427F427EF390F0BF427F527F437F537A2
:10283000F51FF537EF510F0BF527F237070EF16F44
:102840000A0EF407F527FDE3F307F427FDE3F2078B
:10285000F327FDE3F107F227FDE3020EEA6EF10E26
:10286000E96E070EF615F69DED52F61507E1F6B97D
:10287000EE52F6B903D0200E006E21D0E926000EEC
:10288000EA22E950F50804E1EA50020801E1F68D78
:10289000EF50006E08E1F6BD06D0F6B914D0F6B7D9
:1028A00002D0200E0BD0F6AF06D02D0E006EED50EC
:1028B000F69DF69F04D0F687F699300E002600505C
:1028C000A4A8FED7736EEE50F6ADDBD7000197EFEC
:1028D0001CF04250180809E0EF5302E1F05305E004
:1028E0000201EE510A084CE20001466A456A486A54
:1028F000476A676ABE6A1DC058F01CC057F01BC00B
:1029000056F01AC055F0F59583EC04F0640E0301FF
:102910000A6F00017CEC02F00201F56B050EF46F0A
:1029200000018BEC04F083EC04F0640E03010A6FE9
:1029300000017CEC02F00201F56B020EF46F000165
:102940008BEC04F00C0E0201F06FFA0E03010A6F1B
:1029500000017CEC02F00201F02FF7D70001F587AF
:1029600094988B980201EE6B140EF36F000165ECE6
:1029700003F0640E03010A6F00017CEC02F0020117
:10298000EA511A5CF06FEB511B58F16FEC511C5877
:10299000F26FED511D58F36FF3530AE1F25308E162
:1029A000F151020812E2FF0A03E1F051E8080DE2DA
:1029B000EE2B050E495E000E4A5A1DC0EDF21CC0FA
:1029C000ECF21BC0EBF21AC0EAF24A5206E149509F
:1029D000630803E34A6A640E496E000112000201B3
:1029E000EF51140A000130E00D0A4FE0070AD8B495
:1029F0006DD03D0AD8B48BD00B0AD8B4A9D0050A43
:102A0000D8B4C7D01F0AD8B4E5D0050AD8B403D1CA
:102A10000B0AD8B421D17D0AD8B43FD1070AD8B463
:102A20005DD10D0AD8B47BD11B0AD8B499D1050A5F
:102A3000D8B4B7D10F0AD8B4D5D1050AD8B4F3D1D8
:102A40003B0AD8B411D230D255501A5C0201F06F53
:102A500056501B58F16F57501C58F26F58501D5864
:102A6000F36FF3530DE1F25100080DE2FF0A08E1A4
:102A7000F151D30808E2FF0A03E1F051C00803E274
:102A8000000127DF020100010FD255501A5C02013C
:102A9000F06F56501B58F16F57501C58F26F58503A
:102AA0001D58F36FF3530DE1F25101080DE2FF0AD7
:102AB00008E1F151480808E2FF0A03E1F051F0088B
:102AC00003E2000106DF02010001EED155501A5C5D
:102AD0000201F06F56501B58F16F57501C58F26F9F
:102AE00058501D58F36FF3530DE1F25101080DE2F8
:102AF000FF0A08E1F151BE0808E2FF0A03E1F051C4
:102B0000200803E20001E5DE02010001CDD15550AD
:102B10001A5C0201F06F56501B58F16F57501C5849
:102B2000F26F58501D58F36FF3530DE1F251020844
:102B30000DE2FF0A08E1F151330808E2FF0A03E160
:102B4000F051500803E20001C4DE02010001ACD1E3
:102B500055501A5C0201F06F56501B58F16F5750D8
:102B60001C58F26F58501D58F36FF3530DE1F2519A
:102B700002080DE2FF0A08E1F151A80808E2FF0A85
:102B800003E1F051800803E20001A3DE020100012D
:102B90008BD155501A5C0201F06F56501B58F16FE3
:102BA00057501C58F26F58501D58F36FF3530DE1F6
:102BB000F25103080DE2FF0A08E1F1511D0808E295
:102BC000FF0A03E1F051B00803E2000182DE0201D6
:102BD00000016AD155501A5C0201F06F56501B5823
:102BE000F16F57501C58F26F58501D58F36FF35344
:102BF0000DE1F25103080DE2FF0A08E1F1519208DC
:102C000008E2FF0A03E1F051E00803E2000161DE9F
:102C10000201000149D155501A5C0201F06F565073
:102C20001B58F16F57501C58F26F58501D58F36FD6
:102C3000F3530DE1F25104080DE2FF0A08E1F151EE
:102C4000080808E2FF0A03E1F051100803E200015E
:102C500040DE0201000128D155501A5C0201F06FDC
:102C600056501B58F16F57501C58F26F58501D5852
:102C7000F36FF3530DE1F25104080DE2FF0A08E18E
:102C8000F1517D0808E2FF0A03E1F051400803E238
:102C900000011FDE0201000107D155501A5C02013C
:102CA000F06F56501B58F16F57501C58F26F585028
:102CB0001D58F36FF3530DE1F25104080DE2FF0AC2
:102CC00008E1F151F20808E2FF0A03E1F05170084F
:102CD00003E20001FEDD02010001E6D055501A5C5E
:102CE0000201F06F56501B58F16F57501C58F26F8D
:102CF00058501D58F36FF3530DE1F25105080DE2E2
:102D0000FF0A08E1F151670808E2FF0A03E1F05108
:102D1000A00803E20001DDDD02010001C5D055502D
:102D20001A5C0201F06F56501B58F16F57501C5837
:102D3000F26F58501D58F36FF3530DE1F25105082F
:102D40000DE2FF0A08E1F151DC0808E2FF0A03E1A5
:102D5000F051D00803E20001BCDD02010001A4D063
:102D600055501A5C0201F06F56501B58F16F5750C6
:102D70001C58F26F58501D58F36FF3530DE1F25188
:102D800006080DE2FF0A08E1F151520808E2FF0AC5
:102D900003E1F051000803E200019BDD02010001A4
:102DA00083D055501A5C0201F06F56501B58F16FDA
:102DB00057501C58F26F58501D58F36FF3530DE1E4
:102DC000F25106080DE2FF0A08E1F151C70808E2D6
:102DD000FF0A03E1F051300803E200017ADD02014D
:102DE000000162D055501A5C0201F06F56501B581A
:102DF000F16F57501C58F26F58501D58F36FF35332
:102E00000DE1F25107080DE2FF0A08E1F1513C081B
:102E100008E2FF0A03E1F051600803E2000159DD16
:102E20000201000141D055501A5C0201F06F56506A
:102E30001B58F16F57501C58F26F58501D58F36FC4
:102E4000F3530DE1F25107080DE2FF0A08E1F151D9
:102E5000B10808E2FF0A03E1F051900803E2000123
:102E600038DD0201000120D055501A5C0201F06FDC
:102E700056501B58F16F57501C58F26F58501D5840
:102E8000F36FF3530DE1F25108080DE2FF0A08E178
:102E9000F151260808E2FF0A03E1F051C00803E2FD
:102EA000000117DD020100014EEF1DF0010E0201CD
:102EB000F15F0CE3020EEA6EF10EE96EEF5006E0F0
:102EC000040E006E002EFED7EF2EFAD7000112007E
:102ED000200E016EC250830B0110C26E320E020131
:102EE000F16F0001E3DFC282C2B2FED7C3505D269C
:102EF000C4505E22320E0201F16F0001D7DF0201E1
:102F0000F051120855E25EC0F7F25DC0F6F2F96BBF
:102F1000140EF86F0001E7EC04F002C05EF001C08F
:102F20005DF05EC00AF35DC009F30BEC11F003C065
:102F3000F4F202C0F3F201C0F2F200C0F1F203C0F9
:102F40000CF302C00BF301C00AF300C009F3290E11
:102F50000301106F0E0E0F6F1D0E0E6F770E0D6FAB
:102F60000001FDEC11F003C05CF002C05BF001C099
:102F70005AF000C059F05CC00CF35BC00BF35AC0B0
:102F80000AF359C009F30301106B0F6B400E0E6F6B
:102F9000810E0D6F0001FDEC11F003C05CF002C06A
:102FA0005BF001C05AF000C059F05E6A5D6A020130
:102FB0000001ABEF1DF0F5C2FCF20201F951FC1B60
:102FC000FCAF05D0D894D890F5BFD8802FD0F5C2EB
:102FD000FCF2F8C2FDF2F451FD5F06E0FCAF26D032
:102FE000D850010AD86E22D0F9C2FDF2F551FD5F2A
:102FF00006E0FCAF1BD0D850010AD86E17D0FAC239
:10300000FDF2F651FD5F06E0FCAF10D0D850010A8A
:10301000D86E0CD0FBC2FDF2F751FD5F06E0FCAFAD
:1030200005D0D850010AD86E01D0D8900001120006
:103030000201F36BF76BF66B400EF56F830EF46FC6
:10304000F2C2FBF2F1C2FAF2F0C2F9F2EFC2F8F208
:103050000001B1DF05E34F6A4D944D924D964D98B6
:10306000F2C2F7F2F1C2F6F2F0C2F5F2EFC2F4F2F8
:103070000201FB6BFA6B400EF96F830EF86F0001D3
:103080009ADF5AE30201F76BF66B380EF56F830E89
:10309000F46FF2C2FBF2F1C2FAF2F0C2F9F2EFC23F
:1030A000F8F2000188DF01E247E14DB245D00201AC
:1030B000F56B030EF46F640EF66F7C0EF86F100E56
:1030C000F76F000191EC02F0030E0201F46FFA0EAB
:1030D00003010A6F00017CEC02F00201F42FF7D724
:1030E0004F50020822E3F36BF35102081EE3000184
:1030F00083EC04F0640E03010A6F00017CEC02F023
:103100000201F56B1A0EF46F00018BEC04F0080E4F
:103110000201F46FFA0E03010A6F00017CEC02F069
:103120000201F42FF7D7F32BDFD74F2A4F500208B5
:1031300002E24F6A4D820001F2C2F7F2F1C2F6F2EA
:10314000F0C2F5F2EFC2F4F20201FB6BFA6B380E3B
:10315000F96F830EF86F00012EDF5AE30201F76B5F
:10316000F66B340EF56F830EF46FF2C2FBF2F1C210
:10317000FAF2F0C2F9F2EFC2F8F200011CDF01E24C
:1031800047E14DB445D00201F56B030EF46F640EB8
:10319000F66F7C0EF86F100EF76F000191EC02F0E5
:1031A000030E0201F46FFA0E03010A6F00017CECBA
:1031B00002F00201F42FF7D74F50020822E3F36B1D
:1031C000F35102081EE3000183EC04F0640E0301D6
:1031D0000A6F00017CEC02F00201F56B1B0EF46F2C
:1031E00000018BEC04F0080E0201F46FFA0E0301EB
:1031F0000A6F00017CEC02F00201F42FF7D7F32BE9
:10320000DFD74F2A4F50020802E24F6A4D84000177
:10321000F2C2F7F2F1C2F6F2F0C2F5F2EFC2F4F246
:103220000201FB6BFA6B340EF96F830EF86F00012D
:10323000C2DE5AE30201F76BF66B300EF56F830EB8
:10324000F46FF2C2FBF2F1C2FAF2F0C2F9F2EFC28D
:10325000F8F20001B0DE01E247E14DB645D00201CF
:10326000F56B030EF46F640EF66F7C0EF86F100EA4
:10327000F76F000191EC02F0030E0201F46FFA0EF9
:1032800003010A6F00017CEC02F00201F42FF7D772
:103290004F50020822E3F36BF35102081EE30001D2
:1032A00083EC04F0640E03010A6F00017CEC02F071
:1032B0000201F56B1C0EF46F00018BEC04F0080E9C
:1032C0000201F46FFA0E03010A6F00017CEC02F0B8
:1032D0000201F42FF7D7F32BDFD74F2A4F50020804
:1032E00002E24F6A4D860001F2C2F7F2F1C2F6F235
:1032F000F0C2F5F2EFC2F4F2330E0201FB6FFA6F87
:103300002F0EF96F830EF86F000155DE46E34DB8BE
:1033100044D00201F56B030EF46F640EF66F7C0E61
:10332000F86F100EF76F000191EC02F0030E02012E
:10333000F46FFA0E03010A6F00017CEC02F0020147
:10334000F42FF7D74F50020822E3F36BF351020832
:103350001EE3000183EC04F0640E03010A6F000118
:103360007CEC02F00201F56B1D0EF46F00018BEC9A
:1033700004F0080E0201F46FFA0E03010A6F000157
:103380007CEC02F00201F42FF7D7F32BDFD74F2AA2
:103390004F50020802E24F6A4D880001EAEF1DF02B
:1033A000F86AF194D08E078E700ED36E9B8C9B9E24
:1033B0007086820E756E060E766EA60E726E900E7A
:1033C000716E196AB886820EAF6E060EB06EA60ECA
:1033D000AC6E900EAB6E1D6A1C6A1B6A1A6A0F0EE9
:1033E000246E130E256E2F6A3D6A3C6A3B6A3A6A68
:1033F000416A406A3F6A3E6A426A446A436A466A70
:10340000456A486A476A4A6A960E496E4C6AC80E0F
:103410004B6E4D904E6A4F6A4D924D944D964D981D
:10342000536A526A516A506A190E546E586A576A42
:10343000566A556A5C6A5B6A5A6A596A5E6A5D6A6C
:103440005F6A4D9AE86BEA6BE96BEC6BEB6BEE6BCA
:10345000ED6BF06BEF6BF46BF36BF26BF16B4D9C00
:103460004D9EF581F593F595F587F66BF86BF76B47
:10347000FA6BF96B0201DC6BDB6BDE6BDD6BE06B17
:10348000DF6BE26BE16BE36BE46B0001F599F59B9D
:103490000201E56BE66B090EE76F140EE86FE96B4E
:1034A000ED6BEC6BEB6BEA6BEE6B0F01386B396B12
:1034B0003A6B3B6B3C6B776A786A796A05D002009D
:1034C0001E00002840C00000000EF86E340EF76E9B
:1034D000BE0EF66E0900F550006E000A13E00900FA
:1034E000F550016EE8BE05D00F0BEA6E0900F5CF6E
:1034F000E9FF01BC090001AC0900F5CFEEFF004E69
:10350000E9D7F9D7F86A700ED36E9B8C9B9E416BFE
:10351000776A040E786E796E426B94948B940C0EDD
:10352000BD6EB76AB66A010EB96EFC0E4917000E81
:10353000491394928B920C0E666E656A646A010E52
:10354000636EE70E4917000E4913F00E5D1757170B
:103550005417CD6ACC6A000E516F000E526F4D6B3E
:103560004E6B4A6F000E4B6FC050C00B0709C06E08
:10357000C08EC280C150F00BC16E2F0E386F070E87
:103580003C6F040E396F000E3A6F3B6F0609BA6E3E
:10359000C70EBB6EBE6A676A94908B900201F56B92
:1035A000320EF46F020EF66F7C0EF86F100EF76F8E
:1035B000000191EC02F094988B98929C899CF0EF1A
:1035C00002F00201F06B640EEF6F0001FAEF02F0FF
:1035D000F2CFEFF2F29E100EA96EA69CA69EA680D8
:1035E000A8500201EFBFF28EFF080DE0F2CFEFF21C
:1035F000F29E100EA96EA69CA69EA680A850EFBFB4
:10360000F28E546E02D0190E546EF2CFEFF2F29E8B
:10361000A96AA69CA69EA680A850EFBFF28EFF08BE
:1036200029E0F2CFF0F2F29E010EA96EA69CA69EB2
:10363000A680A850F0BFF28EFF081CE0F2CFEFF298
:10364000F29EA96AA69CA69EA680A850EFBFF28E05
:10365000F06FF2CFF1F2F29E010EA96EA69CA69E2B
:10366000A680A850F1BFF28EF26FF0C24CF0F2C209
:103670004BF004D0010E4C6E5E0E4B6EF2CFEFF2AB
:10368000F29E020EA96EA69CA69EA680A850EFBF31
:10369000F28EFF080DE0F2CFEFF2F29E020EA96E5D
:1036A000A69CA69EA680A850EFBFF28E246E02D0E4
:1036B000140E246E24C0F3F2000165EC03F0640ED6
:1036C00003010A6F00017CEC02F0EA6A700EE96EF9
:1036D000006A026A080E016E6EEC03F094968B8607
:1036E00009EC04F00201F26BF16BF06B090EEF6F65
:1036F00000014EEF04F01DC041F01CC040F01BC0A3
:103700003FF01AC03EF041C053F040C052F03FC0FD
:1037100051F03EC050F0426A0201F36B42C0F2F237
:10372000080EF46F000158EC04F04A6A640E496E0A
:103730001BC0FAF01AC0F9F046C002F045C001F013
:103740000232013202320132023201C067FF02321C
:103750000230300B006E6650CF0B0010666E48C012
:1037600002F047C001F0023201320232013202326D
:1037700001C0BEFF02320230300B006EBD50CF0BD5
:103780000010BD6E36EF06F0F5B102D0F5A719D0E6
:10379000948A82AA16D083B014D083B212D083B494
:1037A00010D083B60ED083B80CD083BA0AD045525D
:1037B00008E1465206E1475204E1485202E143EC77
:1037C00005F0F5A109D0F5A907D081EC0BF0A1EC2B
:1037D0000DF0D9EC0FF0F599F5A9A0D1F5A59ED182
:1037E00081EC0BF0A1EC0DF0D9EC0FF0420E0201D0
:1037F000EF6F000182EF10F002C044F001C043F00F
:10380000D60ED8804354006E060E445400C0E9F032
:10381000EA6FEB51E95DED6FEC51EA59EE6F4AC08A
:103820000AF349C009F30BEC11F003C0F2F202C035
:10383000F1F201C0F0F200C0EFF203C00CF302C0DD
:103840000BF301C00AF300C009F30301106BC00EB3
:103850000F6F5A0E0E6F890E0D6F000126EC11F0DE
:1038600003C0F4F002C0F3F001C0F2F000C0F1F0C8
:10387000F4C00CF3F3C00BF3F2C00AF3F1C009F388
:103880000301106B0F6B0E6B820E0D6F000126ECA7
:1038900011F003C0F2F202C0F1F201C0F0F200C078
:1038A000EFF2EAC0F4F2E9C0F3F2EEC0F6F2EDC0D6
:1038B000F5F2ECC0F8F2EBC0F7F2F4C0FCF2F3C0A2
:1038C000FBF2F2C0FAF2F1C0F9F203C000F302C059
:1038D000FFF201C0FEF200C0FDF2C1EF12F002C023
:1038E000F0F001C0EFF0E80EF66E000EF76E040E79
:1038F0000201F06F000137EC0DF0100EE96E44C0CC
:10390000F0F243C0EFF297EF13F0EF0EF66E000EF9
:10391000F76E060E0201F06F000137EC0DF0100E8D
:10392000E96EF0C0F0F2EFC0EFF2F2EF13F00D0E1F
:10393000A4A8FED7736E0A0EA4A8FED7736EF0AFCC
:103940002FD04AC046F049C045F0EF514924476E98
:10395000F0514A20486E48AE02D0486A476A46AEE7
:1039600002D0466A456A48BE0CD04850010809E2B8
:10397000FF0A03E14750BC0804E2020E486EBC0E89
:10398000476E46BE0CD04650010809E2FF0A03E12B
:103990004550BC0804E2020E466EBC0E456E42D095
:1039A000F0BF34D0F05303E1EF5100082FE2EF51A4
:1039B000495C456EF0514A58466E4AC048F049C0CD
:1039C00047F048AE02D0486A476A46AE02D0466A1F
:1039D000456A48BE0CD04850010809E2FF0A03E1DD
:1039E0004750BC0804E2020E486EBC0E476E46BE4D
:1039F0000CD04650010809E2FF0A03E14550BC081B
:103A000004E2020E466EBC0E456E0CD0EF530AE186
:103A1000F05308E14AC048F049C047F04AC046F0B8
:103A200049C045F04DAE08D04AC048F049C047F003
:103A30004AC046F049C045F04DAC06D0486A476AD6
:103A400048C046F047C045F046C002F045C001F00E
:103A50000232013202320132023201C067FF023209
:103A60000230300B006E6650CF0B0010666E48C0FF
:103A700002F047C001F0023201320232013202325A
:103A800001C0BEFF02320230300B006EBD50CF0BC2
:103A90000010BD6E54C0EFF2EFEF14F0EAC0ECF08E
:103AA000E9C0EBF0F599948A82AA09D0F5A507D070
:103AB0000201F56B010EF46F00018BEC04F0F9517B
:103AC0001A5C0201EF6F0001FA511B580201F06FFE
:103AD000000E1C58F16F000E1D58F26FF25307E1F3
:103AE000F15305E1F05303E1EF51640816E24DB0E4
:103AF00014D00A0E4926000E4A224C504A5C09E3B3
:103B000003E14B50495C05E34CC04AF04BC049F01F
:103B10004D801BC0FAF01AC0F9F0000150501A5C39
:103B20000201EF6F51501B58F06F52501C58F16F4B
:103B300053501D58F26FF25307E1F15305E1F05372
:103B400003E1EF51320814E24E504E2AEF6FF06F4E
:103B5000000168EF17F04E50130801E24E6A1DC0D5
:103B600053F01CC052F01BC051F01AC050F00201BB
:103B70003E501A5CEF6F3F501B58F06F40501C587E
:103B8000F16F41501D58F26FF2530DE1F1510108F0
:103B90002AE2FF0A08E1F051480825E2FF0A03E1A2
:103BA000EF51F00820E2455216E1465214E1475227
:103BB00012E1485210E10001F5B102D002010BD030
:103BC0005CC0F2F25BC0F1F25AC0F0F259C0EFF201
:103BD00018EF18F002011DC041F01CC040F01BC0DE
:0C3BE0003FF01AC03EF00001A7D5030022
:020000040030CA
:0E00000000A8191E00B5810000800FE00F401F
:00000001FF
;PIC18F45K22
;CRC=23B3  CREATED="22-Oca-20 14:37"
